{
  "_format": "hh-sol-artifact-1",
  "contractName": "GlyphGraph",
  "sourceName": "contracts/GlyphGraph.sol",
  "abi": [
    {
      "inputs": [],
      "stateMutability": "nonpayable",
      "type": "constructor"
    },
    {
      "inputs": [
        {
          "internalType": "address",
          "name": "sender",
          "type": "address"
        },
        {
          "internalType": "uint256",
          "name": "tokenId",
          "type": "uint256"
        },
        {
          "internalType": "address",
          "name": "owner",
          "type": "address"
        }
      ],
      "name": "ERC721IncorrectOwner",
      "type": "error"
    },
    {
      "inputs": [
        {
          "internalType": "address",
          "name": "operator",
          "type": "address"
        },
        {
          "internalType": "uint256",
          "name": "tokenId",
          "type": "uint256"
        }
      ],
      "name": "ERC721InsufficientApproval",
      "type": "error"
    },
    {
      "inputs": [
        {
          "internalType": "address",
          "name": "approver",
          "type": "address"
        }
      ],
      "name": "ERC721InvalidApprover",
      "type": "error"
    },
    {
      "inputs": [
        {
          "internalType": "address",
          "name": "operator",
          "type": "address"
        }
      ],
      "name": "ERC721InvalidOperator",
      "type": "error"
    },
    {
      "inputs": [
        {
          "internalType": "address",
          "name": "owner",
          "type": "address"
        }
      ],
      "name": "ERC721InvalidOwner",
      "type": "error"
    },
    {
      "inputs": [
        {
          "internalType": "address",
          "name": "receiver",
          "type": "address"
        }
      ],
      "name": "ERC721InvalidReceiver",
      "type": "error"
    },
    {
      "inputs": [
        {
          "internalType": "address",
          "name": "sender",
          "type": "address"
        }
      ],
      "name": "ERC721InvalidSender",
      "type": "error"
    },
    {
      "inputs": [
        {
          "internalType": "uint256",
          "name": "tokenId",
          "type": "uint256"
        }
      ],
      "name": "ERC721NonexistentToken",
      "type": "error"
    },
    {
      "inputs": [],
      "name": "GlyphGraph__LoginAlreadyExists",
      "type": "error"
    },
    {
      "inputs": [],
      "name": "GlyphGraph__LoginNotFound",
      "type": "error"
    },
    {
      "inputs": [],
      "name": "GlyphGraph__PasswordAlreadyExists",
      "type": "error"
    },
    {
      "inputs": [],
      "name": "GlyphGraph__PasswordNotFound",
      "type": "error"
    },
    {
      "inputs": [],
      "name": "GlyphGraph__UserAlreadyExists",
      "type": "error"
    },
    {
      "inputs": [],
      "name": "GlyphGraph__UserNotFound",
      "type": "error"
    },
    {
      "inputs": [],
      "name": "GlyphGraph__VaultAlreadyExists",
      "type": "error"
    },
    {
      "inputs": [],
      "name": "GlyphGraph__VaultNotFound",
      "type": "error"
    },
    {
      "anonymous": false,
      "inputs": [
        {
          "indexed": true,
          "internalType": "address",
          "name": "owner",
          "type": "address"
        },
        {
          "indexed": true,
          "internalType": "address",
          "name": "approved",
          "type": "address"
        },
        {
          "indexed": true,
          "internalType": "uint256",
          "name": "tokenId",
          "type": "uint256"
        }
      ],
      "name": "Approval",
      "type": "event"
    },
    {
      "anonymous": false,
      "inputs": [
        {
          "indexed": true,
          "internalType": "address",
          "name": "owner",
          "type": "address"
        },
        {
          "indexed": true,
          "internalType": "address",
          "name": "operator",
          "type": "address"
        },
        {
          "indexed": false,
          "internalType": "bool",
          "name": "approved",
          "type": "bool"
        }
      ],
      "name": "ApprovalForAll",
      "type": "event"
    },
    {
      "anonymous": false,
      "inputs": [
        {
          "indexed": false,
          "internalType": "uint256",
          "name": "_fromTokenId",
          "type": "uint256"
        },
        {
          "indexed": false,
          "internalType": "uint256",
          "name": "_toTokenId",
          "type": "uint256"
        }
      ],
      "name": "BatchMetadataUpdate",
      "type": "event"
    },
    {
      "anonymous": false,
      "inputs": [
        {
          "indexed": false,
          "internalType": "uint256",
          "name": "_tokenId",
          "type": "uint256"
        }
      ],
      "name": "MetadataUpdate",
      "type": "event"
    },
    {
      "anonymous": false,
      "inputs": [
        {
          "indexed": true,
          "internalType": "address",
          "name": "from",
          "type": "address"
        },
        {
          "indexed": true,
          "internalType": "address",
          "name": "to",
          "type": "address"
        },
        {
          "indexed": true,
          "internalType": "uint256",
          "name": "tokenId",
          "type": "uint256"
        }
      ],
      "name": "Transfer",
      "type": "event"
    },
    {
      "inputs": [
        {
          "internalType": "string",
          "name": "_name",
          "type": "string"
        },
        {
          "internalType": "string",
          "name": "_email",
          "type": "string"
        },
        {
          "internalType": "string",
          "name": "_password",
          "type": "string"
        }
      ],
      "name": "addUser",
      "outputs": [],
      "stateMutability": "nonpayable",
      "type": "function"
    },
    {
      "inputs": [
        {
          "internalType": "address",
          "name": "to",
          "type": "address"
        },
        {
          "internalType": "uint256",
          "name": "tokenId",
          "type": "uint256"
        }
      ],
      "name": "approve",
      "outputs": [],
      "stateMutability": "nonpayable",
      "type": "function"
    },
    {
      "inputs": [
        {
          "internalType": "address",
          "name": "owner",
          "type": "address"
        }
      ],
      "name": "balanceOf",
      "outputs": [
        {
          "internalType": "uint256",
          "name": "",
          "type": "uint256"
        }
      ],
      "stateMutability": "view",
      "type": "function"
    },
    {
      "inputs": [
        {
          "internalType": "string",
          "name": "_vaultId",
          "type": "string"
        },
        {
          "internalType": "string",
          "name": "_title",
          "type": "string"
        },
        {
          "internalType": "string",
          "name": "_username",
          "type": "string"
        },
        {
          "internalType": "string",
          "name": "_passwordId",
          "type": "string"
        },
        {
          "internalType": "string[]",
          "name": "_websites",
          "type": "string[]"
        },
        {
          "internalType": "string",
          "name": "_note",
          "type": "string"
        }
      ],
      "name": "createLogin",
      "outputs": [],
      "stateMutability": "nonpayable",
      "type": "function"
    },
    {
      "inputs": [
        {
          "internalType": "string",
          "name": "_image",
          "type": "string"
        },
        {
          "internalType": "uint32",
          "name": "_rows",
          "type": "uint32"
        },
        {
          "internalType": "uint32",
          "name": "_cols",
          "type": "uint32"
        },
        {
          "internalType": "bool",
          "name": "_specialCharacters",
          "type": "bool"
        },
        {
          "internalType": "bool",
          "name": "_capitalLetters",
          "type": "bool"
        },
        {
          "internalType": "bool",
          "name": "_numbers",
          "type": "bool"
        },
        {
          "internalType": "enum PasswordType",
          "name": "_passwordType",
          "type": "uint8"
        }
      ],
      "name": "createPasswordWithSettings",
      "outputs": [],
      "stateMutability": "nonpayable",
      "type": "function"
    },
    {
      "inputs": [
        {
          "internalType": "string",
          "name": "_name",
          "type": "string"
        },
        {
          "internalType": "bool",
          "name": "_protected",
          "type": "bool"
        },
        {
          "internalType": "string",
          "name": "_password",
          "type": "string"
        }
      ],
      "name": "createVaultWithPassword",
      "outputs": [],
      "stateMutability": "nonpayable",
      "type": "function"
    },
    {
      "inputs": [],
      "name": "getAllVaults",
      "outputs": [
        {
          "components": [
            {
              "internalType": "string",
              "name": "_id",
              "type": "string"
            },
            {
              "internalType": "address",
              "name": "user",
              "type": "address"
            },
            {
              "internalType": "string",
              "name": "name",
              "type": "string"
            },
            {
              "internalType": "bool",
              "name": "protected",
              "type": "bool"
            },
            {
              "internalType": "string",
              "name": "password",
              "type": "string"
            },
            {
              "internalType": "bool",
              "name": "created",
              "type": "bool"
            }
          ],
          "internalType": "struct Vault[]",
          "name": "",
          "type": "tuple[]"
        }
      ],
      "stateMutability": "view",
      "type": "function"
    },
    {
      "inputs": [
        {
          "internalType": "uint256",
          "name": "tokenId",
          "type": "uint256"
        }
      ],
      "name": "getApproved",
      "outputs": [
        {
          "internalType": "address",
          "name": "",
          "type": "address"
        }
      ],
      "stateMutability": "view",
      "type": "function"
    },
    {
      "inputs": [
        {
          "internalType": "string",
          "name": "_id",
          "type": "string"
        }
      ],
      "name": "getLogin",
      "outputs": [
        {
          "components": [
            {
              "components": [
                {
                  "internalType": "string",
                  "name": "_id",
                  "type": "string"
                },
                {
                  "internalType": "address",
                  "name": "user",
                  "type": "address"
                },
                {
                  "internalType": "string",
                  "name": "name",
                  "type": "string"
                },
                {
                  "internalType": "bool",
                  "name": "protected",
                  "type": "bool"
                },
                {
                  "internalType": "string",
                  "name": "password",
                  "type": "string"
                },
                {
                  "internalType": "bool",
                  "name": "created",
                  "type": "bool"
                }
              ],
              "internalType": "struct Vault",
              "name": "vault",
              "type": "tuple"
            },
            {
              "internalType": "string",
              "name": "title",
              "type": "string"
            },
            {
              "internalType": "string",
              "name": "username",
              "type": "string"
            },
            {
              "components": [
                {
                  "internalType": "address",
                  "name": "user",
                  "type": "address"
                },
                {
                  "internalType": "string",
                  "name": "image",
                  "type": "string"
                },
                {
                  "internalType": "uint32",
                  "name": "rows",
                  "type": "uint32"
                },
                {
                  "internalType": "uint32",
                  "name": "cols",
                  "type": "uint32"
                },
                {
                  "internalType": "bool",
                  "name": "specialCharacters",
                  "type": "bool"
                },
                {
                  "internalType": "bool",
                  "name": "capitalLetters",
                  "type": "bool"
                },
                {
                  "internalType": "bool",
                  "name": "numbers",
                  "type": "bool"
                },
                {
                  "internalType": "enum PasswordType",
                  "name": "passwordType",
                  "type": "uint8"
                },
                {
                  "internalType": "bool",
                  "name": "created",
                  "type": "bool"
                }
              ],
              "internalType": "struct Password",
              "name": "password",
              "type": "tuple"
            },
            {
              "internalType": "string[]",
              "name": "websites",
              "type": "string[]"
            },
            {
              "internalType": "string",
              "name": "note",
              "type": "string"
            },
            {
              "internalType": "bool",
              "name": "created",
              "type": "bool"
            }
          ],
          "internalType": "struct Login",
          "name": "",
          "type": "tuple"
        }
      ],
      "stateMutability": "view",
      "type": "function"
    },
    {
      "inputs": [
        {
          "internalType": "string",
          "name": "_id",
          "type": "string"
        }
      ],
      "name": "getPassword",
      "outputs": [
        {
          "components": [
            {
              "internalType": "address",
              "name": "user",
              "type": "address"
            },
            {
              "internalType": "string",
              "name": "image",
              "type": "string"
            },
            {
              "internalType": "uint32",
              "name": "rows",
              "type": "uint32"
            },
            {
              "internalType": "uint32",
              "name": "cols",
              "type": "uint32"
            },
            {
              "internalType": "bool",
              "name": "specialCharacters",
              "type": "bool"
            },
            {
              "internalType": "bool",
              "name": "capitalLetters",
              "type": "bool"
            },
            {
              "internalType": "bool",
              "name": "numbers",
              "type": "bool"
            },
            {
              "internalType": "enum PasswordType",
              "name": "passwordType",
              "type": "uint8"
            },
            {
              "internalType": "bool",
              "name": "created",
              "type": "bool"
            }
          ],
          "internalType": "struct Password",
          "name": "",
          "type": "tuple"
        }
      ],
      "stateMutability": "view",
      "type": "function"
    },
    {
      "inputs": [],
      "name": "getUserDetails",
      "outputs": [
        {
          "components": [
            {
              "internalType": "string",
              "name": "_id",
              "type": "string"
            },
            {
              "internalType": "address",
              "name": "_address",
              "type": "address"
            },
            {
              "internalType": "string",
              "name": "email",
              "type": "string"
            },
            {
              "internalType": "string",
              "name": "name",
              "type": "string"
            },
            {
              "internalType": "string",
              "name": "password",
              "type": "string"
            },
            {
              "internalType": "uint256",
              "name": "timestamp",
              "type": "uint256"
            },
            {
              "internalType": "bool",
              "name": "registered",
              "type": "bool"
            }
          ],
          "internalType": "struct User",
          "name": "",
          "type": "tuple"
        }
      ],
      "stateMutability": "view",
      "type": "function"
    },
    {
      "inputs": [],
      "name": "getUserPasswords",
      "outputs": [
        {
          "components": [
            {
              "internalType": "address",
              "name": "user",
              "type": "address"
            },
            {
              "internalType": "string",
              "name": "image",
              "type": "string"
            },
            {
              "internalType": "uint32",
              "name": "rows",
              "type": "uint32"
            },
            {
              "internalType": "uint32",
              "name": "cols",
              "type": "uint32"
            },
            {
              "internalType": "bool",
              "name": "specialCharacters",
              "type": "bool"
            },
            {
              "internalType": "bool",
              "name": "capitalLetters",
              "type": "bool"
            },
            {
              "internalType": "bool",
              "name": "numbers",
              "type": "bool"
            },
            {
              "internalType": "enum PasswordType",
              "name": "passwordType",
              "type": "uint8"
            },
            {
              "internalType": "bool",
              "name": "created",
              "type": "bool"
            }
          ],
          "internalType": "struct Password[]",
          "name": "",
          "type": "tuple[]"
        }
      ],
      "stateMutability": "view",
      "type": "function"
    },
    {
      "inputs": [
        {
          "internalType": "string",
          "name": "_vaultId",
          "type": "string"
        }
      ],
      "name": "getVaultLogins",
      "outputs": [
        {
          "components": [
            {
              "components": [
                {
                  "internalType": "string",
                  "name": "_id",
                  "type": "string"
                },
                {
                  "internalType": "address",
                  "name": "user",
                  "type": "address"
                },
                {
                  "internalType": "string",
                  "name": "name",
                  "type": "string"
                },
                {
                  "internalType": "bool",
                  "name": "protected",
                  "type": "bool"
                },
                {
                  "internalType": "string",
                  "name": "password",
                  "type": "string"
                },
                {
                  "internalType": "bool",
                  "name": "created",
                  "type": "bool"
                }
              ],
              "internalType": "struct Vault",
              "name": "vault",
              "type": "tuple"
            },
            {
              "internalType": "string",
              "name": "title",
              "type": "string"
            },
            {
              "internalType": "string",
              "name": "username",
              "type": "string"
            },
            {
              "components": [
                {
                  "internalType": "address",
                  "name": "user",
                  "type": "address"
                },
                {
                  "internalType": "string",
                  "name": "image",
                  "type": "string"
                },
                {
                  "internalType": "uint32",
                  "name": "rows",
                  "type": "uint32"
                },
                {
                  "internalType": "uint32",
                  "name": "cols",
                  "type": "uint32"
                },
                {
                  "internalType": "bool",
                  "name": "specialCharacters",
                  "type": "bool"
                },
                {
                  "internalType": "bool",
                  "name": "capitalLetters",
                  "type": "bool"
                },
                {
                  "internalType": "bool",
                  "name": "numbers",
                  "type": "bool"
                },
                {
                  "internalType": "enum PasswordType",
                  "name": "passwordType",
                  "type": "uint8"
                },
                {
                  "internalType": "bool",
                  "name": "created",
                  "type": "bool"
                }
              ],
              "internalType": "struct Password",
              "name": "password",
              "type": "tuple"
            },
            {
              "internalType": "string[]",
              "name": "websites",
              "type": "string[]"
            },
            {
              "internalType": "string",
              "name": "note",
              "type": "string"
            },
            {
              "internalType": "bool",
              "name": "created",
              "type": "bool"
            }
          ],
          "internalType": "struct Login[]",
          "name": "",
          "type": "tuple[]"
        }
      ],
      "stateMutability": "view",
      "type": "function"
    },
    {
      "inputs": [
        {
          "internalType": "address",
          "name": "owner",
          "type": "address"
        },
        {
          "internalType": "address",
          "name": "operator",
          "type": "address"
        }
      ],
      "name": "isApprovedForAll",
      "outputs": [
        {
          "internalType": "bool",
          "name": "",
          "type": "bool"
        }
      ],
      "stateMutability": "view",
      "type": "function"
    },
    {
      "inputs": [],
      "name": "name",
      "outputs": [
        {
          "internalType": "string",
          "name": "",
          "type": "string"
        }
      ],
      "stateMutability": "view",
      "type": "function"
    },
    {
      "inputs": [
        {
          "internalType": "uint256",
          "name": "tokenId",
          "type": "uint256"
        }
      ],
      "name": "ownerOf",
      "outputs": [
        {
          "internalType": "address",
          "name": "",
          "type": "address"
        }
      ],
      "stateMutability": "view",
      "type": "function"
    },
    {
      "inputs": [
        {
          "internalType": "string",
          "name": "_vaultId",
          "type": "string"
        },
        {
          "internalType": "string",
          "name": "_newPassword",
          "type": "string"
        }
      ],
      "name": "protectVault",
      "outputs": [],
      "stateMutability": "nonpayable",
      "type": "function"
    },
    {
      "inputs": [
        {
          "internalType": "address",
          "name": "from",
          "type": "address"
        },
        {
          "internalType": "address",
          "name": "to",
          "type": "address"
        },
        {
          "internalType": "uint256",
          "name": "tokenId",
          "type": "uint256"
        }
      ],
      "name": "safeTransferFrom",
      "outputs": [],
      "stateMutability": "nonpayable",
      "type": "function"
    },
    {
      "inputs": [
        {
          "internalType": "address",
          "name": "from",
          "type": "address"
        },
        {
          "internalType": "address",
          "name": "to",
          "type": "address"
        },
        {
          "internalType": "uint256",
          "name": "tokenId",
          "type": "uint256"
        },
        {
          "internalType": "bytes",
          "name": "data",
          "type": "bytes"
        }
      ],
      "name": "safeTransferFrom",
      "outputs": [],
      "stateMutability": "nonpayable",
      "type": "function"
    },
    {
      "inputs": [
        {
          "internalType": "address",
          "name": "operator",
          "type": "address"
        },
        {
          "internalType": "bool",
          "name": "approved",
          "type": "bool"
        }
      ],
      "name": "setApprovalForAll",
      "outputs": [],
      "stateMutability": "nonpayable",
      "type": "function"
    },
    {
      "inputs": [
        {
          "internalType": "bytes4",
          "name": "interfaceId",
          "type": "bytes4"
        }
      ],
      "name": "supportsInterface",
      "outputs": [
        {
          "internalType": "bool",
          "name": "",
          "type": "bool"
        }
      ],
      "stateMutability": "view",
      "type": "function"
    },
    {
      "inputs": [],
      "name": "symbol",
      "outputs": [
        {
          "internalType": "string",
          "name": "",
          "type": "string"
        }
      ],
      "stateMutability": "view",
      "type": "function"
    },
    {
      "inputs": [
        {
          "internalType": "uint256",
          "name": "tokenId",
          "type": "uint256"
        }
      ],
      "name": "tokenURI",
      "outputs": [
        {
          "internalType": "string",
          "name": "",
          "type": "string"
        }
      ],
      "stateMutability": "view",
      "type": "function"
    },
    {
      "inputs": [
        {
          "internalType": "address",
          "name": "from",
          "type": "address"
        },
        {
          "internalType": "address",
          "name": "to",
          "type": "address"
        },
        {
          "internalType": "uint256",
          "name": "tokenId",
          "type": "uint256"
        }
      ],
      "name": "transferFrom",
      "outputs": [],
      "stateMutability": "nonpayable",
      "type": "function"
    },
    {
      "inputs": [
        {
          "internalType": "string",
          "name": "_vaultId",
          "type": "string"
        },
        {
          "internalType": "string",
          "name": "_newPassword",
          "type": "string"
        }
      ],
      "name": "updateVaultPassword",
      "outputs": [],
      "stateMutability": "nonpayable",
      "type": "function"
    }
  ],
  "bytecode": "0x60806040523480156200001157600080fd5b506040518060400160405280600a81526020016908ed8f2e0d08ee4c2e0d60b31b81525060405180604001604052806003815260200162474c4760e81b81525081600090816200006291906200011f565b5060016200007182826200011f565b505050620001eb565b634e487b7160e01b600052604160045260246000fd5b600181811c90821680620000a557607f821691505b602082108103620000c657634e487b7160e01b600052602260045260246000fd5b50919050565b601f8211156200011a57600081815260208120601f850160051c81016020861015620000f55750805b601f850160051c820191505b81811015620001165782815560010162000101565b5050505b505050565b81516001600160401b038111156200013b576200013b6200007a565b62000153816200014c845462000090565b84620000cc565b602080601f8311600181146200018b5760008415620001725750858301515b600019600386901b1c1916600185901b17855562000116565b600085815260208120601f198616915b82811015620001bc578886015182559484019460019091019084016200019b565b5085821015620001db5787850151600019600388901b60f8161c191681555b5050505050600190811b01905550565b615fbb80620001fb6000396000f3fe608060405234801561001057600080fd5b50600436106101735760003560e01c806395c5fed4116100de578063aa90495111610097578063e690293311610071578063e69029331461035f578063e985e9c514610372578063f96fa83914610385578063fb3e2067146103a557600080fd5b8063aa90495114610326578063b88d4fde14610339578063c87b56dd1461034c57600080fd5b806395c5fed4146102bb57806395d89b41146102ce57806397331bf9146102d65780639c2096b7146102eb578063a22cb46514610300578063a9336e7a1461031357600080fd5b806342842e0e1161013057806342842e0e1461022c57806348fd24c71461023f5780636352211e1461025257806370a08231146102655780637547898114610286578063942886be146102a657600080fd5b806301b8c31c1461017857806301ffc9a7146101a157806306fdde03146101c4578063081812fc146101d9578063095ea7b31461020457806323b872dd14610219575b600080fd5b61018b6101863660046152de565b6103b8565b6040516101989190615457565b60405180910390f35b6101b46101af366004615480565b610834565b6040519015158152602001610198565b6101cc61085f565b604051610198919061549d565b6101ec6101e73660046154b0565b6108f1565b6040516001600160a01b039091168152602001610198565b6102176102123660046154e0565b61091a565b005b61021761022736600461550a565b610929565b61021761023a36600461550a565b6109b9565b61021761024d366004615556565b6109d9565b6101ec6102603660046154b0565b610db4565b6102786102733660046155c9565b610dbf565b604051908152602001610198565b6102996102943660046152de565b610e07565b6040516101989190615752565b6102ae611734565b6040516101989190615765565b6102176102c936600461580d565b611a3b565b6101cc611b8b565b6102de611b9a565b6040516101989190615867565b6102f3612207565b60405161019891906158c9565b61021761030e36600461591e565b612763565b610217610321366004615951565b61276e565b610217610334366004615a52565b612a9f565b610217610347366004615b46565b613442565b6101cc61035a3660046154b0565b613459565b61021761036d366004615bd5565b61356a565b6101b4610380366004615c7d565b613a0d565b6103986103933660046152de565b613a3b565b6040516101989190615ca7565b6102176103b3366004615951565b6144c7565b6103c0615098565b33600090815260076020526040808220815160e081019092528054829082906103e890615cfc565b80601f016020809104026020016040519081016040528092919081815260200182805461041490615cfc565b80156104615780601f1061043657610100808354040283529160200191610461565b820191906000526020600020905b81548152906001019060200180831161044457829003601f168201915b505050918352505060018201546001600160a01b0316602082015260028201805460409092019161049190615cfc565b80601f01602080910402602001604051908101604052809291908181526020018280546104bd90615cfc565b801561050a5780601f106104df5761010080835404028352916020019161050a565b820191906000526020600020905b8154815290600101906020018083116104ed57829003601f168201915b5050505050815260200160038201805461052390615cfc565b80601f016020809104026020016040519081016040528092919081815260200182805461054f90615cfc565b801561059c5780601f106105715761010080835404028352916020019161059c565b820191906000526020600020905b81548152906001019060200180831161057f57829003601f168201915b505050505081526020016004820180546105b590615cfc565b80601f01602080910402602001604051908101604052809291908181526020018280546105e190615cfc565b801561062e5780601f106106035761010080835404028352916020019161062e565b820191906000526020600020905b81548152906001019060200180831161061157829003601f168201915b50505091835250506005820154602082015260069091015460ff161515604090910152805151909150600003610677576040516358471fa960e11b815260040160405180910390fd5b600b836040516106879190615d36565b908152602001604051809103902060010180546106a390615cfc565b90506000036106c55760405163e8ba0f6d60e01b815260040160405180910390fd5b600b836040516106d59190615d36565b908152604080519182900360209081018320610120840190925281546001600160a01b031683526001820180549184019161070f90615cfc565b80601f016020809104026020016040519081016040528092919081815260200182805461073b90615cfc565b80156107885780601f1061075d57610100808354040283529160200191610788565b820191906000526020600020905b81548152906001019060200180831161076b57829003601f168201915b5050509183525050600282015463ffffffff8082166020840152600160201b820416604083015260ff600160401b8204811615156060840152600160481b8204811615156080840152600160501b82048116151560a084015260c090920191600160581b90910416600181111561080157610801615362565b600181111561081257610812615362565b815260029190910154600160601b900460ff1615156020909101529392505050565b60006001600160e01b03198216632483248360e11b1480610859575061085982614810565b92915050565b60606000805461086e90615cfc565b80601f016020809104026020016040519081016040528092919081815260200182805461089a90615cfc565b80156108e75780601f106108bc576101008083540402835291602001916108e7565b820191906000526020600020905b8154815290600101906020018083116108ca57829003601f168201915b5050505050905090565b60006108fc82614860565b506000828152600460205260409020546001600160a01b0316610859565b610925828233614899565b5050565b6001600160a01b03821661095857604051633250574960e11b8152600060048201526024015b60405180910390fd5b60006109658383336148a6565b9050836001600160a01b0316816001600160a01b0316146109b3576040516364283d7b60e01b81526001600160a01b038086166004830152602482018490528216604482015260640161094f565b50505050565b6109d483838360405180602001604052806000815250613442565b505050565b33600090815260076020526040808220815160e08101909252805482908290610a0190615cfc565b80601f0160208091040260200160405190810160405280929190818152602001828054610a2d90615cfc565b8015610a7a5780601f10610a4f57610100808354040283529160200191610a7a565b820191906000526020600020905b815481529060010190602001808311610a5d57829003601f168201915b505050918352505060018201546001600160a01b03166020820152600282018054604090920191610aaa90615cfc565b80601f0160208091040260200160405190810160405280929190818152602001828054610ad690615cfc565b8015610b235780601f10610af857610100808354040283529160200191610b23565b820191906000526020600020905b815481529060010190602001808311610b0657829003601f168201915b50505050508152602001600382018054610b3c90615cfc565b80601f0160208091040260200160405190810160405280929190818152602001828054610b6890615cfc565b8015610bb55780601f10610b8a57610100808354040283529160200191610bb5565b820191906000526020600020905b815481529060010190602001808311610b9857829003601f168201915b50505050508152602001600482018054610bce90615cfc565b80601f0160208091040260200160405190810160405280929190818152602001828054610bfa90615cfc565b8015610c475780601f10610c1c57610100808354040283529160200191610c47565b820191906000526020600020905b815481529060010190602001808311610c2a57829003601f168201915b50505091835250506005820154602082015260069091015460ff161515604090910152805151909150600003610c90576040516358471fa960e11b815260040160405180910390fd5b6000610c9c602061499f565b6040805160c081018252828152336020820152808201889052861515606082015260808101869052600160a08201529051919250908190600990610ce1908590615d36565b90815260405190819003602001902081518190610cfe9082615da0565b5060208201516001820180546001600160a01b0319166001600160a01b0390921691909117905560408201516002820190610d399082615da0565b50606082015160038201805460ff191691151591909117905560808201516004820190610d669082615da0565b5060a091909101516005909101805460ff191691151591909117905533600090815260086020908152604082208054600181018255908352912001610dab8382615da0565b50505050505050565b600061085982614860565b60006001600160a01b038216610deb576040516322718ad960e21b81526000600482015260240161094f565b506001600160a01b031660009081526003602052604090205490565b610e0f6150e5565b33600090815260076020526040808220815160e08101909252805482908290610e3790615cfc565b80601f0160208091040260200160405190810160405280929190818152602001828054610e6390615cfc565b8015610eb05780601f10610e8557610100808354040283529160200191610eb0565b820191906000526020600020905b815481529060010190602001808311610e9357829003601f168201915b505050918352505060018201546001600160a01b03166020820152600282018054604090920191610ee090615cfc565b80601f0160208091040260200160405190810160405280929190818152602001828054610f0c90615cfc565b8015610f595780601f10610f2e57610100808354040283529160200191610f59565b820191906000526020600020905b815481529060010190602001808311610f3c57829003601f168201915b50505050508152602001600382018054610f7290615cfc565b80601f0160208091040260200160405190810160405280929190818152602001828054610f9e90615cfc565b8015610feb5780601f10610fc057610100808354040283529160200191610feb565b820191906000526020600020905b815481529060010190602001808311610fce57829003601f168201915b5050505050815260200160048201805461100490615cfc565b80601f016020809104026020016040519081016040528092919081815260200182805461103090615cfc565b801561107d5780601f106110525761010080835404028352916020019161107d565b820191906000526020600020905b81548152906001019060200180831161106057829003601f168201915b50505091835250506005820154602082015260069091015460ff1615156040909101528051519091506000036110c6576040516358471fa960e11b815260040160405180910390fd5b600d836040516110d69190615d36565b90815260405190819003602001902080546110f090615cfc565b905060000361111257604051635a5825b560e11b815260040160405180910390fd5b600d836040516111229190615d36565b908152604080519182900360200182206101a083019091528054829060e082019083908290829061115290615cfc565b80601f016020809104026020016040519081016040528092919081815260200182805461117e90615cfc565b80156111cb5780601f106111a0576101008083540402835291602001916111cb565b820191906000526020600020905b8154815290600101906020018083116111ae57829003601f168201915b505050918352505060018201546001600160a01b031660208201526002820180546040909201916111fb90615cfc565b80601f016020809104026020016040519081016040528092919081815260200182805461122790615cfc565b80156112745780601f1061124957610100808354040283529160200191611274565b820191906000526020600020905b81548152906001019060200180831161125757829003601f168201915b5050509183525050600382015460ff16151560208201526004820180546040909201916112a090615cfc565b80601f01602080910402602001604051908101604052809291908181526020018280546112cc90615cfc565b80156113195780601f106112ee57610100808354040283529160200191611319565b820191906000526020600020905b8154815290600101906020018083116112fc57829003601f168201915b50505091835250506005919091015460ff161515602091820152908252600683018054929091019161134a90615cfc565b80601f016020809104026020016040519081016040528092919081815260200182805461137690615cfc565b80156113c35780601f10611398576101008083540402835291602001916113c3565b820191906000526020600020905b8154815290600101906020018083116113a657829003601f168201915b505050505081526020016007820180546113dc90615cfc565b80601f016020809104026020016040519081016040528092919081815260200182805461140890615cfc565b80156114555780601f1061142a57610100808354040283529160200191611455565b820191906000526020600020905b81548152906001019060200180831161143857829003601f168201915b50505091835250506040805161012081019091526008830180546001600160a01b031682526009840180546020948501948401919061149390615cfc565b80601f01602080910402602001604051908101604052809291908181526020018280546114bf90615cfc565b801561150c5780601f106114e15761010080835404028352916020019161150c565b820191906000526020600020905b8154815290600101906020018083116114ef57829003601f168201915b5050509183525050600282015463ffffffff8082166020840152600160201b820416604083015260ff600160401b8204811615156060840152600160481b8204811615156080840152600160501b82048116151560a084015260c090920191600160581b90910416600181111561158557611585615362565b600181111561159657611596615362565b815260029190910154600160601b900460ff161515602091820152908252600b830180546040805182850281018501909152818152938301939260009084015b828210156116825783829060005260206000200180546115f590615cfc565b80601f016020809104026020016040519081016040528092919081815260200182805461162190615cfc565b801561166e5780601f106116435761010080835404028352916020019161166e565b820191906000526020600020905b81548152906001019060200180831161165157829003601f168201915b5050505050815260200190600101906115d6565b505050508152602001600c8201805461169a90615cfc565b80601f01602080910402602001604051908101604052809291908181526020018280546116c690615cfc565b80156117135780601f106116e857610100808354040283529160200191611713565b820191906000526020600020905b8154815290600101906020018083116116f657829003601f168201915b5050509183525050600d919091015460ff1615156020909101529392505050565b61177f6040518060e001604052806060815260200160006001600160a01b03168152602001606081526020016060815260200160608152602001600081526020016000151581525090565b33600090815260076020526040808220815160e081019092528054829082906117a790615cfc565b80601f01602080910402602001604051908101604052809291908181526020018280546117d390615cfc565b80156118205780601f106117f557610100808354040283529160200191611820565b820191906000526020600020905b81548152906001019060200180831161180357829003601f168201915b505050918352505060018201546001600160a01b0316602082015260028201805460409092019161185090615cfc565b80601f016020809104026020016040519081016040528092919081815260200182805461187c90615cfc565b80156118c95780601f1061189e576101008083540402835291602001916118c9565b820191906000526020600020905b8154815290600101906020018083116118ac57829003601f168201915b505050505081526020016003820180546118e290615cfc565b80601f016020809104026020016040519081016040528092919081815260200182805461190e90615cfc565b801561195b5780601f106119305761010080835404028352916020019161195b565b820191906000526020600020905b81548152906001019060200180831161193e57829003601f168201915b5050505050815260200160048201805461197490615cfc565b80601f01602080910402602001604051908101604052809291908181526020018280546119a090615cfc565b80156119ed5780601f106119c2576101008083540402835291602001916119ed565b820191906000526020600020905b8154815290600101906020018083116119d057829003601f168201915b50505091835250506005820154602082015260069091015460ff161515604090910152805151909150600003611a36576040516358471fa960e11b815260040160405180910390fd5b919050565b3360009081526007602052604090206006015460ff16151560011480611a7a57503360009081526007602052604081208054611a7690615cfc565b9050115b15611a98576040516308a4fe2560e11b815260040160405180910390fd5b6000611aa4602061499f565b6040805160e08101825282815233602080830182905282840189905260608301889052608083018790524260a0840152600160c084015260009182526007905291909120815192935090918190611afb9082615da0565b5060208201516001820180546001600160a01b0319166001600160a01b0390921691909117905560408201516002820190611b369082615da0565b5060608201516003820190611b4b9082615da0565b5060808201516004820190611b609082615da0565b5060a0820151600582015560c0909101516006909101805460ff191691151591909117905550505050565b60606001805461086e90615cfc565b33600090815260076020526040808220815160e08101909252805460609392919082908290611bc890615cfc565b80601f0160208091040260200160405190810160405280929190818152602001828054611bf490615cfc565b8015611c415780601f10611c1657610100808354040283529160200191611c41565b820191906000526020600020905b815481529060010190602001808311611c2457829003601f168201915b505050918352505060018201546001600160a01b03166020820152600282018054604090920191611c7190615cfc565b80601f0160208091040260200160405190810160405280929190818152602001828054611c9d90615cfc565b8015611cea5780601f10611cbf57610100808354040283529160200191611cea565b820191906000526020600020905b815481529060010190602001808311611ccd57829003601f168201915b50505050508152602001600382018054611d0390615cfc565b80601f0160208091040260200160405190810160405280929190818152602001828054611d2f90615cfc565b8015611d7c5780601f10611d5157610100808354040283529160200191611d7c565b820191906000526020600020905b815481529060010190602001808311611d5f57829003601f168201915b50505050508152602001600482018054611d9590615cfc565b80601f0160208091040260200160405190810160405280929190818152602001828054611dc190615cfc565b8015611e0e5780601f10611de357610100808354040283529160200191611e0e565b820191906000526020600020905b815481529060010190602001808311611df157829003601f168201915b50505091835250506005820154602082015260069091015460ff161515604090910152805151909150600003611e57576040516358471fa960e11b815260040160405180910390fd5b336000908152600860205260408120546001600160401b03811115611e7e57611e7e615221565b604051908082528060200260200182016040528015611ee057816020015b6040805160c0810182526060808252600060208301819052928201819052808201839052608082015260a0810191909152815260200190600190039081611e9c5790505b50905060005b3360009081526008602052604090205481101561220057336000908152600860205260408120805483908110611f1e57611f1e615e5f565b906000526020600020018054611f3390615cfc565b80601f0160208091040260200160405190810160405280929190818152602001828054611f5f90615cfc565b8015611fac5780601f10611f8157610100808354040283529160200191611fac565b820191906000526020600020905b815481529060010190602001808311611f8f57829003601f168201915b50505050509050600981604051611fc39190615d36565b90815260200160405180910390206040518060c0016040529081600082018054611fec90615cfc565b80601f016020809104026020016040519081016040528092919081815260200182805461201890615cfc565b80156120655780601f1061203a57610100808354040283529160200191612065565b820191906000526020600020905b81548152906001019060200180831161204857829003601f168201915b505050918352505060018201546001600160a01b0316602082015260028201805460409092019161209590615cfc565b80601f01602080910402602001604051908101604052809291908181526020018280546120c190615cfc565b801561210e5780601f106120e35761010080835404028352916020019161210e565b820191906000526020600020905b8154815290600101906020018083116120f157829003601f168201915b5050509183525050600382015460ff161515602082015260048201805460409092019161213a90615cfc565b80601f016020809104026020016040519081016040528092919081815260200182805461216690615cfc565b80156121b35780601f10612188576101008083540402835291602001916121b3565b820191906000526020600020905b81548152906001019060200180831161219657829003601f168201915b50505091835250506005919091015460ff16151560209091015283518490849081106121e1576121e1615e5f565b60200260200101819052505080806121f890615e75565b915050611ee6565b5092915050565b33600090815260076020526040808220815160e0810190925280546060939291908290829061223590615cfc565b80601f016020809104026020016040519081016040528092919081815260200182805461226190615cfc565b80156122ae5780601f10612283576101008083540402835291602001916122ae565b820191906000526020600020905b81548152906001019060200180831161229157829003601f168201915b505050918352505060018201546001600160a01b031660208201526002820180546040909201916122de90615cfc565b80601f016020809104026020016040519081016040528092919081815260200182805461230a90615cfc565b80156123575780601f1061232c57610100808354040283529160200191612357565b820191906000526020600020905b81548152906001019060200180831161233a57829003601f168201915b5050505050815260200160038201805461237090615cfc565b80601f016020809104026020016040519081016040528092919081815260200182805461239c90615cfc565b80156123e95780601f106123be576101008083540402835291602001916123e9565b820191906000526020600020905b8154815290600101906020018083116123cc57829003601f168201915b5050505050815260200160048201805461240290615cfc565b80601f016020809104026020016040519081016040528092919081815260200182805461242e90615cfc565b801561247b5780601f106124505761010080835404028352916020019161247b565b820191906000526020600020905b81548152906001019060200180831161245e57829003601f168201915b50505091835250506005820154602082015260069091015460ff1615156040909101528051519091506000036124c4576040516358471fa960e11b815260040160405180910390fd5b60408051600080825260208201909252816124f5565b6124e2615098565b8152602001906001900390816124da5790505b50905060005b336000908152600a602052604090205481101561220057336000908152600a6020526040812080548390811061253357612533615e5f565b90600052602060002001805461254890615cfc565b80601f016020809104026020016040519081016040528092919081815260200182805461257490615cfc565b80156125c15780601f10612596576101008083540402835291602001916125c1565b820191906000526020600020905b8154815290600101906020018083116125a457829003601f168201915b50505050509050600b816040516125d89190615d36565b908152604080519182900360209081018320610120840190925281546001600160a01b031683526001820180549184019161261290615cfc565b80601f016020809104026020016040519081016040528092919081815260200182805461263e90615cfc565b801561268b5780601f106126605761010080835404028352916020019161268b565b820191906000526020600020905b81548152906001019060200180831161266e57829003601f168201915b5050509183525050600282015463ffffffff8082166020840152600160201b820416604083015260ff600160401b8204811615156060840152600160481b8204811615156080840152600160501b82048116151560a084015260c090920191600160581b90910416600181111561270457612704615362565b600181111561271557612715615362565b815260029190910154600160601b900460ff161515602090910152835184908490811061274457612744615e5f565b602002602001018190525050808061275b90615e75565b9150506124fb565b610925338383614afd565b33600090815260076020526040808220815160e0810190925280548290829061279690615cfc565b80601f01602080910402602001604051908101604052809291908181526020018280546127c290615cfc565b801561280f5780601f106127e45761010080835404028352916020019161280f565b820191906000526020600020905b8154815290600101906020018083116127f257829003601f168201915b505050918352505060018201546001600160a01b0316602082015260028201805460409092019161283f90615cfc565b80601f016020809104026020016040519081016040528092919081815260200182805461286b90615cfc565b80156128b85780601f1061288d576101008083540402835291602001916128b8565b820191906000526020600020905b81548152906001019060200180831161289b57829003601f168201915b505050505081526020016003820180546128d190615cfc565b80601f01602080910402602001604051908101604052809291908181526020018280546128fd90615cfc565b801561294a5780601f1061291f5761010080835404028352916020019161294a565b820191906000526020600020905b81548152906001019060200180831161292d57829003601f168201915b5050505050815260200160048201805461296390615cfc565b80601f016020809104026020016040519081016040528092919081815260200182805461298f90615cfc565b80156129dc5780601f106129b1576101008083540402835291602001916129dc565b820191906000526020600020905b8154815290600101906020018083116129bf57829003601f168201915b50505091835250506005820154602082015260069091015460ff161515604090910152805151909150600003612a25576040516358471fa960e11b815260040160405180910390fd5b600983604051612a359190615d36565b9081526040519081900360200190208054612a4f90615cfc565b9050600003612a71576040516322e796ff60e01b815260040160405180910390fd5b81600984604051612a829190615d36565b908152602001604051809103902060040190816109b39190615da0565b33600090815260076020526040808220815160e08101909252805482908290612ac790615cfc565b80601f0160208091040260200160405190810160405280929190818152602001828054612af390615cfc565b8015612b405780601f10612b1557610100808354040283529160200191612b40565b820191906000526020600020905b815481529060010190602001808311612b2357829003601f168201915b505050918352505060018201546001600160a01b03166020820152600282018054604090920191612b7090615cfc565b80601f0160208091040260200160405190810160405280929190818152602001828054612b9c90615cfc565b8015612be95780601f10612bbe57610100808354040283529160200191612be9565b820191906000526020600020905b815481529060010190602001808311612bcc57829003601f168201915b50505050508152602001600382018054612c0290615cfc565b80601f0160208091040260200160405190810160405280929190818152602001828054612c2e90615cfc565b8015612c7b5780601f10612c5057610100808354040283529160200191612c7b565b820191906000526020600020905b815481529060010190602001808311612c5e57829003601f168201915b50505050508152602001600482018054612c9490615cfc565b80601f0160208091040260200160405190810160405280929190818152602001828054612cc090615cfc565b8015612d0d5780601f10612ce257610100808354040283529160200191612d0d565b820191906000526020600020905b815481529060010190602001808311612cf057829003601f168201915b50505091835250506005820154602082015260069091015460ff161515604090910152805151909150600003612d56576040516358471fa960e11b815260040160405180910390fd5b600987604051612d669190615d36565b9081526040519081900360200190208054612d8090615cfc565b9050600003612da2576040516322e796ff60e01b815260040160405180910390fd5b600b84604051612db29190615d36565b90815260200160405180910390206001018054612dce90615cfc565b9050600003612df05760405163e8ba0f6d60e01b815260040160405180910390fd5b6000612dfc602061499f565b905060006040518060e0016040528060098b604051612e1b9190615d36565b90815260200160405180910390206040518060c0016040529081600082018054612e4490615cfc565b80601f0160208091040260200160405190810160405280929190818152602001828054612e7090615cfc565b8015612ebd5780601f10612e9257610100808354040283529160200191612ebd565b820191906000526020600020905b815481529060010190602001808311612ea057829003601f168201915b505050918352505060018201546001600160a01b03166020820152600282018054604090920191612eed90615cfc565b80601f0160208091040260200160405190810160405280929190818152602001828054612f1990615cfc565b8015612f665780601f10612f3b57610100808354040283529160200191612f66565b820191906000526020600020905b815481529060010190602001808311612f4957829003601f168201915b5050509183525050600382015460ff1615156020820152600482018054604090920191612f9290615cfc565b80601f0160208091040260200160405190810160405280929190818152602001828054612fbe90615cfc565b801561300b5780601f10612fe05761010080835404028352916020019161300b565b820191906000526020600020905b815481529060010190602001808311612fee57829003601f168201915b50505091835250506005919091015460ff16151560209182015290825281018a905260408082018a905251606090910190600b9061304a908a90615d36565b908152604080519182900360209081018320610120840190925281546001600160a01b031683526001820180549184019161308490615cfc565b80601f01602080910402602001604051908101604052809291908181526020018280546130b090615cfc565b80156130fd5780601f106130d2576101008083540402835291602001916130fd565b820191906000526020600020905b8154815290600101906020018083116130e057829003601f168201915b5050509183525050600282015463ffffffff8082166020840152600160201b820416604083015260ff600160401b8204811615156060840152600160481b8204811615156080840152600160501b82048116151560a084015260c090920191600160581b90910416600181111561317657613176615362565b600181111561318757613187615362565b815260200160028201600c9054906101000a900460ff161515151581525050815260200186815260200185815260200160011515815250905080600d836040516131d19190615d36565b90815260405190819003602001902081518051829081906131f29082615da0565b5060208201516001820180546001600160a01b0319166001600160a01b039092169190911790556040820151600282019061322d9082615da0565b50606082015160038201805460ff19169115159190911790556080820151600482019061325a9082615da0565b5060a091909101516005909101805460ff19169115159190911790556020820151600682019061328a9082615da0565b506040820151600782019061329f9082615da0565b50606082015180516008830180546001600160a01b0319166001600160a01b03909216919091178155602082015160098401906132dc9082615da0565b5060408201516002820180546060850151608086015160a087015160c08801511515600160501b0260ff60501b19911515600160481b0260ff60481b19931515600160401b029390931661ffff60401b1963ffffffff958616600160201b0267ffffffffffffffff199097169590981694909417949094179590951691909117179283168117825560e08501519260ff60581b1990911661ffff60501b1990911617600160581b83600181111561339557613395615362565b0217905550610100919091015160029091018054911515600160601b0260ff60601b19909216919091179055608082015180516133dc91600b84019160209091019061515c565b5060a0820151600c8201906133f19082615da0565b5060c09190910151600d909101805460ff1916911515919091179055336000908152600c60209081526040822080546001810182559083529120016134368382615da0565b50505050505050505050565b61344d848484610929565b6109b384848484614b9c565b606061346482614860565b506000828152600660205260408120805461347e90615cfc565b80601f01602080910402602001604051908101604052809291908181526020018280546134aa90615cfc565b80156134f75780601f106134cc576101008083540402835291602001916134f7565b820191906000526020600020905b8154815290600101906020018083116134da57829003601f168201915b50505050509050600061351560408051602081019091526000815290565b90508051600003613527575092915050565b815115613559578082604051602001613541929190615e9c565b60405160208183030381529060405292505050919050565b61356284614cc5565b949350505050565b33600090815260076020526040808220815160e0810190925280548290829061359290615cfc565b80601f01602080910402602001604051908101604052809291908181526020018280546135be90615cfc565b801561360b5780601f106135e05761010080835404028352916020019161360b565b820191906000526020600020905b8154815290600101906020018083116135ee57829003601f168201915b505050918352505060018201546001600160a01b0316602082015260028201805460409092019161363b90615cfc565b80601f016020809104026020016040519081016040528092919081815260200182805461366790615cfc565b80156136b45780601f10613689576101008083540402835291602001916136b4565b820191906000526020600020905b81548152906001019060200180831161369757829003601f168201915b505050505081526020016003820180546136cd90615cfc565b80601f01602080910402602001604051908101604052809291908181526020018280546136f990615cfc565b80156137465780601f1061371b57610100808354040283529160200191613746565b820191906000526020600020905b81548152906001019060200180831161372957829003601f168201915b5050505050815260200160048201805461375f90615cfc565b80601f016020809104026020016040519081016040528092919081815260200182805461378b90615cfc565b80156137d85780601f106137ad576101008083540402835291602001916137d8565b820191906000526020600020905b8154815290600101906020018083116137bb57829003601f168201915b50505091835250506005820154602082015260069091015460ff161515604090910152805151909150600003613821576040516358471fa960e11b815260040160405180910390fd5b600061382d602061499f565b90506000604051806101200160405280336001600160a01b031681526020018b81526020018a63ffffffff1681526020018963ffffffff16815260200188151581526020018715158152602001861515815260200185600181111561389457613894615362565b815260200160011515815250905080600b836040516138b39190615d36565b90815260405160209181900382019020825181546001600160a01b0319166001600160a01b039091161781559082015160018201906138f29082615da0565b5060408201516002820180546060850151608086015160a087015160c08801511515600160501b0260ff60501b19911515600160481b0260ff60481b19931515600160401b029390931661ffff60401b1963ffffffff958616600160201b0267ffffffffffffffff199097169590981694909417949094179590951691909117179283168117825560e08501519260ff60581b1990911661ffff60501b1990911617600160581b8360018111156139ab576139ab615362565b0217905550610100919091015160029091018054911515600160601b0260ff60601b19909216919091179055336000908152600a6020908152604082208054600181018255908352912001613a008382615da0565b5050505050505050505050565b6001600160a01b03918216600090815260056020908152604080832093909416825291909152205460ff1690565b33600090815260076020526040808220815160e08101909252805460609392919082908290613a6990615cfc565b80601f0160208091040260200160405190810160405280929190818152602001828054613a9590615cfc565b8015613ae25780601f10613ab757610100808354040283529160200191613ae2565b820191906000526020600020905b815481529060010190602001808311613ac557829003601f168201915b505050918352505060018201546001600160a01b03166020820152600282018054604090920191613b1290615cfc565b80601f0160208091040260200160405190810160405280929190818152602001828054613b3e90615cfc565b8015613b8b5780601f10613b6057610100808354040283529160200191613b8b565b820191906000526020600020905b815481529060010190602001808311613b6e57829003601f168201915b50505050508152602001600382018054613ba490615cfc565b80601f0160208091040260200160405190810160405280929190818152602001828054613bd090615cfc565b8015613c1d5780601f10613bf257610100808354040283529160200191613c1d565b820191906000526020600020905b815481529060010190602001808311613c0057829003601f168201915b50505050508152602001600482018054613c3690615cfc565b80601f0160208091040260200160405190810160405280929190818152602001828054613c6290615cfc565b8015613caf5780601f10613c8457610100808354040283529160200191613caf565b820191906000526020600020905b815481529060010190602001808311613c9257829003601f168201915b50505091835250506005820154602082015260069091015460ff161515604090910152805151909150600003613cf8576040516358471fa960e11b815260040160405180910390fd5b600983604051613d089190615d36565b9081526040519081900360200190208054613d2290615cfc565b9050600003613d44576040516322e796ff60e01b815260040160405180910390fd5b6040805160008082526020820190925281613d75565b613d626150e5565b815260200190600190039081613d5a5790505b5090506000805b336000908152600c60205260409020548110156144bd57336000908152600c60205260408120805483908110613db457613db4615e5f565b906000526020600020018054613dc990615cfc565b80601f0160208091040260200160405190810160405280929190818152602001828054613df590615cfc565b8015613e425780601f10613e1757610100808354040283529160200191613e42565b820191906000526020600020905b815481529060010190602001808311613e2557829003601f168201915b505050505090506000600d82604051613e5b9190615d36565b908152604080519182900360200182206101a083019091528054829060e0820190839082908290613e8b90615cfc565b80601f0160208091040260200160405190810160405280929190818152602001828054613eb790615cfc565b8015613f045780601f10613ed957610100808354040283529160200191613f04565b820191906000526020600020905b815481529060010190602001808311613ee757829003601f168201915b505050918352505060018201546001600160a01b03166020820152600282018054604090920191613f3490615cfc565b80601f0160208091040260200160405190810160405280929190818152602001828054613f6090615cfc565b8015613fad5780601f10613f8257610100808354040283529160200191613fad565b820191906000526020600020905b815481529060010190602001808311613f9057829003601f168201915b5050509183525050600382015460ff1615156020820152600482018054604090920191613fd990615cfc565b80601f016020809104026020016040519081016040528092919081815260200182805461400590615cfc565b80156140525780601f1061402757610100808354040283529160200191614052565b820191906000526020600020905b81548152906001019060200180831161403557829003601f168201915b50505091835250506005919091015460ff161515602091820152908252600683018054929091019161408390615cfc565b80601f01602080910402602001604051908101604052809291908181526020018280546140af90615cfc565b80156140fc5780601f106140d1576101008083540402835291602001916140fc565b820191906000526020600020905b8154815290600101906020018083116140df57829003601f168201915b5050505050815260200160078201805461411590615cfc565b80601f016020809104026020016040519081016040528092919081815260200182805461414190615cfc565b801561418e5780601f106141635761010080835404028352916020019161418e565b820191906000526020600020905b81548152906001019060200180831161417157829003601f168201915b50505091835250506040805161012081019091526008830180546001600160a01b03168252600984018054602094850194840191906141cc90615cfc565b80601f01602080910402602001604051908101604052809291908181526020018280546141f890615cfc565b80156142455780601f1061421a57610100808354040283529160200191614245565b820191906000526020600020905b81548152906001019060200180831161422857829003601f168201915b5050509183525050600282015463ffffffff8082166020840152600160201b820416604083015260ff600160401b8204811615156060840152600160481b8204811615156080840152600160501b82048116151560a084015260c090920191600160581b9091041660018111156142be576142be615362565b60018111156142cf576142cf615362565b815260029190910154600160601b900460ff161515602091820152908252600b830180546040805182850281018501909152818152938301939260009084015b828210156143bb57838290600052602060002001805461432e90615cfc565b80601f016020809104026020016040519081016040528092919081815260200182805461435a90615cfc565b80156143a75780601f1061437c576101008083540402835291602001916143a7565b820191906000526020600020905b81548152906001019060200180831161438a57829003601f168201915b50505050508152602001906001019061430f565b505050508152602001600c820180546143d390615cfc565b80601f01602080910402602001604051908101604052809291908181526020018280546143ff90615cfc565b801561444c5780601f106144215761010080835404028352916020019161444c565b820191906000526020600020905b81548152906001019060200180831161442f57829003601f168201915b5050509183525050600d919091015460ff1615156020909101528051519091506144769089614d3a565b156144a8578085858151811061448e5761448e615e5f565b602002602001018190525083806144a490615e75565b9450505b505080806144b590615e75565b915050613d7c565b5090949350505050565b33600090815260076020526040808220815160e081019092528054829082906144ef90615cfc565b80601f016020809104026020016040519081016040528092919081815260200182805461451b90615cfc565b80156145685780601f1061453d57610100808354040283529160200191614568565b820191906000526020600020905b81548152906001019060200180831161454b57829003601f168201915b505050918352505060018201546001600160a01b0316602082015260028201805460409092019161459890615cfc565b80601f01602080910402602001604051908101604052809291908181526020018280546145c490615cfc565b80156146115780601f106145e657610100808354040283529160200191614611565b820191906000526020600020905b8154815290600101906020018083116145f457829003601f168201915b5050505050815260200160038201805461462a90615cfc565b80601f016020809104026020016040519081016040528092919081815260200182805461465690615cfc565b80156146a35780601f10614678576101008083540402835291602001916146a3565b820191906000526020600020905b81548152906001019060200180831161468657829003601f168201915b505050505081526020016004820180546146bc90615cfc565b80601f01602080910402602001604051908101604052809291908181526020018280546146e890615cfc565b80156147355780601f1061470a57610100808354040283529160200191614735565b820191906000526020600020905b81548152906001019060200180831161471857829003601f168201915b50505091835250506005820154602082015260069091015460ff16151560409091015280515190915060000361477e576040516358471fa960e11b815260040160405180910390fd5b60098360405161478e9190615d36565b90815260405190819003602001902080546147a890615cfc565b90506000036147ca576040516322e796ff60e01b815260040160405180910390fd5b60016009846040516147dc9190615d36565b908152604051908190036020018120600301805492151560ff19909316929092179091558290600990612a82908690615d36565b60006001600160e01b031982166380ac58cd60e01b148061484157506001600160e01b03198216635b5e139f60e01b145b8061085957506301ffc9a760e01b6001600160e01b0319831614610859565b6000818152600260205260408120546001600160a01b03168061085957604051637e27328960e01b81526004810184905260240161094f565b6109d48383836001614d60565b6000828152600260205260408120546001600160a01b03908116908316156148d3576148d3818486614e66565b6001600160a01b03811615614911576148f0600085600080614d60565b6001600160a01b038116600090815260036020526040902080546000190190555b6001600160a01b03851615614940576001600160a01b0385166000908152600360205260409020805460010190555b60008481526002602052604080822080546001600160a01b0319166001600160a01b0389811691821790925591518793918516917fddf252ad1be2c89b69c2b068fc378daa952ba7f163c4a11628f55a4df523b3ef91a4949350505050565b606060004243336040516020016149db93929190928352602083019190915260601b6bffffffffffffffffffffffff1916604082015260540190565b60408051808303601f1901815282825280516020918201208184018190528251808503909201825260a084018352603e928401838152909450909260009290615f48906060013990506000856001600160401b03811115614a3e57614a3e615221565b6040519080825280601f01601f191660200182016040528015614a68576020820181803683370190505b50905060005b86811015614af357828351858381518110614a8b57614a8b615e5f565b0160200151614a9d919060f81c615ecb565b81518110614aad57614aad615e5f565b602001015160f81c60f81b828281518110614aca57614aca615e5f565b60200101906001600160f81b031916908160001a90535080614aeb81615e75565b915050614a6e565b5095945050505050565b6001600160a01b038216614b2f57604051630b61174360e31b81526001600160a01b038316600482015260240161094f565b6001600160a01b03838116600081815260056020908152604080832094871680845294825291829020805460ff191686151590811790915591519182527f17307eab39ab6107e8899845ad3d59bd9653f200f220920489ca2b5937696c31910160405180910390a3505050565b6001600160a01b0383163b156109b357604051630a85bd0160e11b81526001600160a01b0384169063150b7a0290614bde903390889087908790600401615eed565b6020604051808303816000875af1925050508015614c19575060408051601f3d908101601f19168201909252614c1691810190615f2a565b60015b614c82573d808015614c47576040519150601f19603f3d011682016040523d82523d6000602084013e614c4c565b606091505b508051600003614c7a57604051633250574960e11b81526001600160a01b038516600482015260240161094f565b805181602001fd5b6001600160e01b03198116630a85bd0160e11b14614cbe57604051633250574960e11b81526001600160a01b038516600482015260240161094f565b5050505050565b6060614cd082614860565b506000614ce860408051602081019091526000815290565b90506000815111614d085760405180602001604052806000815250614d33565b80614d1284614eca565b604051602001614d23929190615e9c565b6040516020818303038152906040525b9392505050565b600081518351148015614d33575081805190602001208380519060200120149392505050565b8080614d7457506001600160a01b03821615155b15614e36576000614d8484614860565b90506001600160a01b03831615801590614db05750826001600160a01b0316816001600160a01b031614155b8015614dc35750614dc18184613a0d565b155b15614dec5760405163a9fbf51f60e01b81526001600160a01b038416600482015260240161094f565b8115614e345783856001600160a01b0316826001600160a01b03167f8c5be1e5ebec7d5bd14f71427d1e84f3dd0314c0f7b2291e5b200ac8c7c3b92560405160405180910390a45b505b5050600090815260046020526040902080546001600160a01b0319166001600160a01b0392909216919091179055565b614e71838383614f5d565b6109d4576001600160a01b038316614e9f57604051637e27328960e01b81526004810182905260240161094f565b60405163177e802f60e01b81526001600160a01b03831660048201526024810182905260440161094f565b60606000614ed783614fc0565b60010190506000816001600160401b03811115614ef657614ef6615221565b6040519080825280601f01601f191660200182016040528015614f20576020820181803683370190505b5090508181016020015b600019016f181899199a1a9b1b9c1cb0b131b232b360811b600a86061a8153600a8504945084614f2a575b509392505050565b60006001600160a01b038316158015906135625750826001600160a01b0316846001600160a01b03161480614f975750614f978484613a0d565b806135625750506000908152600460205260409020546001600160a01b03908116911614919050565b60008072184f03e93ff9f4daa797ed6e38ed64bf6a1f0160401b8310614fff5772184f03e93ff9f4daa797ed6e38ed64bf6a1f0160401b830492506040015b6d04ee2d6d415b85acef8100000000831061502b576d04ee2d6d415b85acef8100000000830492506020015b662386f26fc10000831061504957662386f26fc10000830492506010015b6305f5e1008310615061576305f5e100830492506008015b612710831061507557612710830492506004015b60648310615087576064830492506002015b600a83106108595760010192915050565b604080516101208101825260008082526060602083018190529282018190529181018290526080810182905260a0810182905260c081018290529060e08201908152600060209091015290565b6040518060e001604052806151276040805160c0810182526060808252600060208301819052928201819052808201839052608082015260a081019190915290565b81526020016060815260200160608152602001615142615098565b815260606020820181905260408201819052600091015290565b8280548282559060005260206000209081019282156151a2579160200282015b828111156151a257825182906151929082615da0565b509160200191906001019061517c565b506151ae9291506151b2565b5090565b808211156151ae5760006151c682826151cf565b506001016151b2565b5080546151db90615cfc565b6000825580601f106151eb575050565b601f016020900490600052602060002090810190615209919061520c565b50565b5b808211156151ae576000815560010161520d565b634e487b7160e01b600052604160045260246000fd5b604051601f8201601f191681016001600160401b038111828210171561525f5761525f615221565b604052919050565b60006001600160401b0383111561528057615280615221565b615293601f8401601f1916602001615237565b90508281528383830111156152a757600080fd5b828260208301376000602084830101529392505050565b600082601f8301126152cf57600080fd5b614d3383833560208501615267565b6000602082840312156152f057600080fd5b81356001600160401b0381111561530657600080fd5b613562848285016152be565b60005b8381101561532d578181015183820152602001615315565b50506000910152565b6000815180845261534e816020860160208601615312565b601f01601f19169290920160200192915050565b634e487b7160e01b600052602160045260246000fd5b6002811061539657634e487b7160e01b600052602160045260246000fd5b9052565b600061012060018060a01b03835116845260208301518160208601526153c282860182615336565b91505060408301516153dc604086018263ffffffff169052565b5060608301516153f4606086018263ffffffff169052565b506080830151615408608086018215159052565b5060a083015161541c60a086018215159052565b5060c083015161543060c086018215159052565b5060e083015161544360e0860182615378565b5061010083810151801515868301526144bd565b602081526000614d33602083018461539a565b6001600160e01b03198116811461520957600080fd5b60006020828403121561549257600080fd5b8135614d338161546a565b602081526000614d336020830184615336565b6000602082840312156154c257600080fd5b5035919050565b80356001600160a01b0381168114611a3657600080fd5b600080604083850312156154f357600080fd5b6154fc836154c9565b946020939093013593505050565b60008060006060848603121561551f57600080fd5b615528846154c9565b9250615536602085016154c9565b9150604084013590509250925092565b80358015158114611a3657600080fd5b60008060006060848603121561556b57600080fd5b83356001600160401b038082111561558257600080fd5b61558e878388016152be565b945061559c60208701615546565b935060408601359150808211156155b257600080fd5b506155bf868287016152be565b9150509250925092565b6000602082840312156155db57600080fd5b614d33826154c9565b6000815160c084526155f960c0850182615336565b905060018060a01b036020840151166020850152604083015184820360408601526156248282615336565b9150506060830151151560608501526080830151848203608086015261564a8282615336565b91505060a0830151151560a08501528091505092915050565b6000815160e0845261567860e08501826155e4565b9050602080840151858303828701526156918382615336565b925050604084015185830360408701526156ab8382615336565b925050606084015185830360608701526156c5838261539a565b925050608084015185830360808701528281518085528385019150838160051b860101848401935060005b8281101561571e57601f1987830301845261570c828651615336565b948601949386019391506001016156f0565b5060a0880151955088810360a08a01526157388187615336565b9550505050505060c0830151614f5560c086018215159052565b602081526000614d336020830184615663565b602081526000825160e06020840152615782610100840182615336565b905060018060a01b0360208501511660408401526040840151601f19808584030160608601526157b28383615336565b925060608601519150808584030160808601526157cf8383615336565b925060808601519150808584030160a0860152506157ed8282615336565b91505060a084015160c084015260c0840151614f5560e085018215159052565b60008060006060848603121561582257600080fd5b83356001600160401b038082111561583957600080fd5b615845878388016152be565b9450602086013591508082111561585b57600080fd5b61559c878388016152be565b6000602080830181845280855180835260408601915060408160051b870101925083870160005b828110156158bc57603f198886030184526158aa8583516155e4565b9450928501929085019060010161588e565b5092979650505050505050565b6000602080830181845280855180835260408601915060408160051b870101925083870160005b828110156158bc57603f1988860301845261590c85835161539a565b945092850192908501906001016158f0565b6000806040838503121561593157600080fd5b61593a836154c9565b915061594860208401615546565b90509250929050565b6000806040838503121561596457600080fd5b82356001600160401b038082111561597b57600080fd5b615987868387016152be565b9350602085013591508082111561599d57600080fd5b506159aa858286016152be565b9150509250929050565b600082601f8301126159c557600080fd5b813560206001600160401b03808311156159e1576159e1615221565b8260051b6159f0838201615237565b9384528581018301938381019088861115615a0a57600080fd5b84880192505b85831015615a4657823584811115615a285760008081fd5b615a368a87838c01016152be565b8352509184019190840190615a10565b98975050505050505050565b60008060008060008060c08789031215615a6b57600080fd5b86356001600160401b0380821115615a8257600080fd5b615a8e8a838b016152be565b97506020890135915080821115615aa457600080fd5b615ab08a838b016152be565b96506040890135915080821115615ac657600080fd5b615ad28a838b016152be565b95506060890135915080821115615ae857600080fd5b615af48a838b016152be565b94506080890135915080821115615b0a57600080fd5b615b168a838b016159b4565b935060a0890135915080821115615b2c57600080fd5b50615b3989828a016152be565b9150509295509295509295565b60008060008060808587031215615b5c57600080fd5b615b65856154c9565b9350615b73602086016154c9565b92506040850135915060608501356001600160401b03811115615b9557600080fd5b8501601f81018713615ba657600080fd5b615bb587823560208401615267565b91505092959194509250565b803563ffffffff81168114611a3657600080fd5b600080600080600080600060e0888a031215615bf057600080fd5b87356001600160401b03811115615c0657600080fd5b615c128a828b016152be565b975050615c2160208901615bc1565b9550615c2f60408901615bc1565b9450615c3d60608901615546565b9350615c4b60808901615546565b9250615c5960a08901615546565b915060c088013560028110615c6d57600080fd5b8091505092959891949750929550565b60008060408385031215615c9057600080fd5b615c99836154c9565b9150615948602084016154c9565b6000602080830181845280855180835260408601915060408160051b870101925083870160005b828110156158bc57603f19888603018452615cea858351615663565b94509285019290850190600101615cce565b600181811c90821680615d1057607f821691505b602082108103615d3057634e487b7160e01b600052602260045260246000fd5b50919050565b60008251615d48818460208701615312565b9190910192915050565b601f8211156109d457600081815260208120601f850160051c81016020861015615d795750805b601f850160051c820191505b81811015615d9857828155600101615d85565b505050505050565b81516001600160401b03811115615db957615db9615221565b615dcd81615dc78454615cfc565b84615d52565b602080601f831160018114615e025760008415615dea5750858301515b600019600386901b1c1916600185901b178555615d98565b600085815260208120601f198616915b82811015615e3157888601518255948401946001909101908401615e12565b5085821015615e4f5787850151600019600388901b60f8161c191681555b5050505050600190811b01905550565b634e487b7160e01b600052603260045260246000fd5b600060018201615e9557634e487b7160e01b600052601160045260246000fd5b5060010190565b60008351615eae818460208801615312565b835190830190615ec2818360208801615312565b01949350505050565b600082615ee857634e487b7160e01b600052601260045260246000fd5b500690565b6001600160a01b0385811682528416602082015260408101839052608060608201819052600090615f2090830184615336565b9695505050505050565b600060208284031215615f3c57600080fd5b8151614d338161546a56fe303132333435363738396162636465666768696a6b6c6d6e6f707172737475767778797a4142434445464748494a4b4c4d4e4f505152535455565758595aa2646970667358221220c8e56f8aa879f69a1ebf7842cf4c9d153c8045b6ffa2da7c9272794f6b2584b864736f6c63430008140033",
  "linkReferences": {},
  "deployedLinkReferences": {}
}